{
  "_format": "hh-sol-artifact-1",
  "contractName": "Whitelist",
  "sourceName": "contracts/Whitelist.sol",
  "abi": [
    {
      "inputs": [
        {
          "internalType": "bytes32",
          "name": "_markleRoot",
          "type": "bytes32"
        }
      ],
      "stateMutability": "nonpayable",
      "type": "constructor"
    },
    {
      "inputs": [
        {
          "internalType": "bytes32[]",
          "name": "proof",
          "type": "bytes32[]"
        },
        {
          "internalType": "uint64",
          "name": "maxAllowanceToMint",
          "type": "uint64"
        }
      ],
      "name": "checkInWhitelist",
      "outputs": [
        {
          "internalType": "bool",
          "name": "",
          "type": "bool"
        }
      ],
      "stateMutability": "view",
      "type": "function"
    },
    {
      "inputs": [],
      "name": "merkleRoot",
      "outputs": [
        {
          "internalType": "bytes32",
          "name": "",
          "type": "bytes32"
        }
      ],
      "stateMutability": "view",
      "type": "function"
    }
  ],
  "bytecode": "0x608060405234801561001057600080fd5b506040516105583803806105588339818101604052810190610032919061007a565b80600081905550506100a7565b600080fd5b6000819050919050565b61005781610044565b811461006257600080fd5b50565b6000815190506100748161004e565b92915050565b6000602082840312156100905761008f61003f565b5b600061009e84828501610065565b91505092915050565b6104a2806100b66000396000f3fe608060405234801561001057600080fd5b50600436106100365760003560e01c80632eb4a7ab1461003b578063e10d3be214610059575b600080fd5b610043610089565b60405161005091906101e3565b60405180910390f35b610073600480360381019061006e91906102ad565b61008f565b6040516100809190610328565b60405180910390f35b60005481565b60008033836040516020016100a5929190610393565b604051602081830303815290604052805190602001209050600061010d868680806020026020016040519081016040528093929190818152602001838360200280828437600081840152601f19601f820116905080830192505050505050506000548461011b565b905080925050509392505050565b6000826101288584610132565b1490509392505050565b60008082905060005b845181101561017d576101688286838151811061015b5761015a6103bc565b5b6020026020010151610188565b9150808061017590610424565b91505061013b565b508091505092915050565b60008183106101a05761019b82846101b3565b6101ab565b6101aa83836101b3565b5b905092915050565b600082600052816020526040600020905092915050565b6000819050919050565b6101dd816101ca565b82525050565b60006020820190506101f860008301846101d4565b92915050565b600080fd5b600080fd5b600080fd5b600080fd5b600080fd5b60008083601f84011261022d5761022c610208565b5b8235905067ffffffffffffffff81111561024a5761024961020d565b5b60208301915083602082028301111561026657610265610212565b5b9250929050565b600067ffffffffffffffff82169050919050565b61028a8161026d565b811461029557600080fd5b50565b6000813590506102a781610281565b92915050565b6000806000604084860312156102c6576102c56101fe565b5b600084013567ffffffffffffffff8111156102e4576102e3610203565b5b6102f086828701610217565b9350935050602061030386828701610298565b9150509250925092565b60008115159050919050565b6103228161030d565b82525050565b600060208201905061033d6000830184610319565b92915050565b600073ffffffffffffffffffffffffffffffffffffffff82169050919050565b600061036e82610343565b9050919050565b61037e81610363565b82525050565b61038d8161026d565b82525050565b60006040820190506103a86000830185610375565b6103b56020830184610384565b9392505050565b7f4e487b7100000000000000000000000000000000000000000000000000000000600052603260045260246000fd5b7f4e487b7100000000000000000000000000000000000000000000000000000000600052601160045260246000fd5b6000819050919050565b600061042f8261041a565b91507fffffffffffffffffffffffffffffffffffffffffffffffffffffffffffffffff8203610461576104606103eb565b5b60018201905091905056fea26469706673582212209314bd4d31fd633f9c06def1a12e623553adb036b1a18135f509823cd16d93f764736f6c63430008110033",
  "linkReferences": {},
  "deployedLinkReferences": {}
}